:103800000C94341C0C94521E0C94511C0C94511C9E
:103810000C94511C0C94511C0C94511C0C94511C74
:103820000C94511C0C94511C0C94511C0C94511C64
:103830000C94511C0C94511C0C94511C0C94511C54
:103840000C94511C0C94511C0C947E1C0C940C1D5B
:103850000C94511C0C94511C0C94511C0C94511C34
:103860000C94511C0C94511C11241FBECFEFD8E0B6
:10387000DEBFCDBF11E0A0E0B1E0E8E3F1E402C0BB
:1038800005900D92A034B107D9F711E0A0E4B1E0A2
:1038900001C01D92AA37B107E1F70E94161E0C94D1
:1038A0009A200C94001C8091C1008860E0ECF0E04C
:1038B00081838091C00080648093C00020E030E06C
:1038C000A0ECB0E00DC0FA01E20FF31F8081169664
:1038D0008C9316978091C00085FFFCCF2F5F3F4FE0
:1038E0002617370780F38091C00086FFFCCF8091B8
:1038F000C100877FE0ECF0E0818308951F920F9272
:103900000FB60F9211240F900FBE0F901F901895B5
:103910000895682F88E091E00E947C1DE0ECF0E0C3
:103920008181886281830895AF92BF92CF92DF92A6
:10393000EF92FF921F93CF93DF935B016A016115B2
:10394000710511F410E020C028E0E22EF12CE80E01
:10395000F91EC701FA0160810E947C1D182F809119
:10396000C1008862E0ECF0E08183C1E0D0E009C0F2
:10397000F601EC0FFD1FC70160810E947C1D182B12
:103980002196CA15DB05A0F3812FDF91CF911F91FE
:10399000FF90EF90DF90CF90BF90AF900895AF92DF
:1039A000BF92CF92DF92EF92FF920F931F93CF932C
:1039B000DF935B016A016115710519F138E0E32EAF
:1039C000F12CE80EF91EC701F60160810E947C1DF2
:1039D0008823C9F78091C1008862E0ECF0E0818320
:1039E000C1E0D0E00BC086010C0F1D1FC701F8011C
:1039F00060810E947C1D8823C9F72196CA15DB05CA
:103A000090F3DF91CF911F910F91FF90EF90DF9096
:103A1000CF90BF90AF9008951F920F920FB60F9264
:103A200011242F933F934F935F936F937F938F93C3
:103A30009F93AF93BF93EF93FF9320910A0130912F
:103A40000B0180910C0190910D012817390731F479
:103A500080910E0190910F01892B41F088E091E057
:103A60000E94B71DE0ECF0E0868306C08091C100A3
:103A7000877DE0ECF0E08183FF91EF91BF91AF9102
:103A80009F918F917F916F915F914F913F912F9176
:103A90000F900FBE0F901F901895CF92DF92EF926C
:103AA000FF920F931F936C017A018B0160E472E423
:103AB0008FE090E0A80197010E94731F21503040D1
:103AC00040405040E0ECF0E02483232F342F452F7A
:103AD00055272583F601E482F58206831783C60104
:103AE000089660E470E00E94F81D1F910F91FF900E
:103AF000EF90DF90CF900895DC0114962D913C91CA
:103B0000159712968D919C9113978217930741F404
:103B100016968D919C911797019711F48FEF089548
:103B2000ED91FC911197E20FF31F608314968D9134
:103B30009C911597019615969C938E9314971896C1
:103B40002D913C9119978217930711F080E0089509
:103B500015961C921E92149716968D919C9117970C
:103B6000019617969C938E93169780E00895DC013A
:103B700012968D919C911397ED91FC911197E80FFE
:103B8000F91FE081019613969C938E9312971896D5
:103B90002D913C9119978217930769F413961C9203
:103BA0001E92129716968D919C91179701971796D2
:103BB0009C938E9316978E2F0895FC018481958196
:103BC000892B51F480859185019795838483868123
:103BD0009781019797838683848195810197958347
:103BE00084830190F081E02DE80FF91F8081089512
:103BF0000F931F93CF93DF93EC018B018881998101
:103C0000009711F00E944220C8010E94951F8883EE
:103C100099831F821E821D821C821B821A82198731
:103C20000887DF91CF911F910F910895CF93DF9374
:103C300085B7816085BF85B7826085BF80E091E0F0
:103C400040E855E260E070E00E944D1D7894C0E9C4
:103C5000D1E080E091E066E270E042E151E00E9454
:103C6000CF1C88EE93E0FE013197F1F70197D9F769
:103C7000F0CFA82FB92F80E090E041E050EA6095A6
:103C800030E009C02D9182279795879510F0842701
:103C90009527305EC8F36F5FA8F30895EADF8D9330
:103CA0009D930895CF93CFB7CF93DF93C3954B9B4D
:103CB000E9F74B9B0BC04B9B09C04B9B07C04B9B31
:103CC00005C04B9B03C04B9B01C08BC06F93C09141
:103CD0005901DD27C05ADE4F2F9365E54B9B03C08A
:103CE0002F916F91E6CF0F931F934F9320E040E108
:103CF0005F9309B10C7003FB27F93F9350E03BE061
:103D000039C01C7040642F77012F5F5F1EC0406870
:103D100019B11C702F7752501FC0406409B12F7722
:103D20000C70D1F15F5F00C023C0406219B12F77E2
:103D30001C7091F15F5F00C025C00C7010275150BE
:103D400012F45D5F0000115027952C3F19B1C8F6A1
:103D50001C700127015027952C3FC8F64227499334
:103D600009B10C7010274F73115027952C3FA8F6FE
:103D70004695469519B11C7079F001270150279599
:103D80002C3F98F66B5A60F3315009B1B0F600C081
:103D900011E01CBB002719C03B503195C31BD0401C
:103DA00011E01CBB0881033C09F10B34F9F02091B0
:103DB00057011981110F1213EDCF4A81441F0936A3
:103DC00051F10D3211F0013E29F700935E013F9150
:103DD0005F914F911F910F912F916F91CCB3C0FDC7
:103DE00065CFDF91CF91CFBFCF91189520915E0124
:103DF000222369F310915C01112391F5343092F183
:103E000030935C0120935801109159013BE0311B24
:103E10003093590127C000915C0101300CF50AE58F
:103E20004F7049F43091380134FD1DC000933801C2
:103E3000C0E4D1E01CC030914B0134FD14C00093AC
:103E40004B01CCE4D1E013C0052710E000C0000016
:103E50000BB91AC0052710E0221F1DC010E021C0B9
:103E60004AE502C032ED432FC4E1D0E032E01AB19E
:103E70001C605B9A0BB11AB95CE020E865E320FF97
:103E800005270BB9279517951C3FF0F66695B8F7EF
:103E9000B1F720FF05270BB9279517951C3FD0F6E2
:103EA0002795179517FF052700001C3F0BB9B0F6A3
:103EB00029913A9519F7037F10915D01110FC651B1
:103EC000D0400BB911F01093570111E01CBB0860F2
:103ED0001AB1137F402F437F54E05A95F1F70BB985
:103EE0001AB94BB974CFA1E21A2EAA1BBB1BFD0154
:103EF0000DC0AA1FBB1FEE1FFF1FA217B307E407C9
:103F0000F50720F0A21BB30BE40BF50B661F771F20
:103F1000881F991F1A9469F7609570958095909500
:103F20009B01AC01BD01CF010895CF93DF93BC018C
:103F30008230910510F462E070E0A0917801B091B8
:103F40007901ED01E0E0F0E040E050E021C088813F
:103F500099818617970769F48A819B81309719F0B8
:103F60009383828304C09093790180937801FE014A
:103F700034C06817790738F44115510519F08417D2
:103F8000950708F4AC01FE018A819B819C01E9013F
:103F90002097E9F641155105A9F1CA01861B970B37
:103FA000049708F4BA01E0E0F0E02AC08D919C91FA
:103FB000119784179507F9F46417750781F4129621
:103FC0008D919C911397309719F09383828304C04D
:103FD0009093790180937801FD0132964FC0CA0118
:103FE000861B970BFD01E80FF91F619371930297F0
:103FF0008D939C9343C0FD01828193819C01D901E3
:104000001097A1F68091760190917701892B41F468
:1040100080913C0190913D019093770180937601CE
:1040200040913E0150913F014115510541F44DB77A
:104030005EB780913A0190913B01481B590B20914A
:1040400076013091770124173507B0F4CA01821B3D
:10405000930B8617970780F0AB014E5F5F4F841775
:10406000950750F0420F531F50937701409376010C
:10407000F9016193719302C0E0E0F0E0CF01DF91BC
:10408000CF910895CF93DF93009709F450C0EC01CE
:1040900022971B821A82A0917801B0917901109722
:1040A00009F140E050E0AC17BD0708F1BB83AA83DB
:1040B000FE0121913191E20FF31FAE17BF0779F492
:1040C0008D919C911197280F391F2E5F3F4F398397
:1040D000288312968D919C9113979B838A83411517
:1040E000510571F4D0937901C093780120C01296E4
:1040F0008D919C911397AD01009711F0DC01D3CF06
:10410000FA01D383C28321913191E20FF31FCE17BD
:10411000DF0769F488819981280F391F2E5F3F4F8F
:10412000FA01318320838A819B8193838283DF918B
:08413000CF910895F894FFCF30
:10413800891C881C80250000000000000000000089
:10414800000048656C6C6F20576F726C64213132C7
:1041580033340D0A4F63742020322032303134302A
:10416800323A34353A3331005AFF20007A010000E0
:02000004008278
:03000000FFD8FF27
:0400000300003800C1
:00000001FF
