:100000000C9479000C94A2030C9496000C94960026
:100010000C9496000C9496000C9496000C94960008
:100020000C9496000C9496000C9496000C949600F8
:100030000C9496000C9496000C9496000C949600E8
:100040000C9496000C9496000C9499010C945C010D
:100050000C9496000C9496000C9496000C949600C8
:100060000C9496000C94960005010902A101090167
:10007000A100050919012903150025019503750142
:10008000810295017505810305010930093109389F
:100090001581257F750895038106C0C009022200DD
:1000A000010100800A090400000103000000092189
:1000B00001010001223400070581030800641201D8
:1000C000100100000008C016E80200010102000152
:1000D0000C034D006F0075007300650012036F0084
:1000E00062006400650076002E0061007400040365
:1000F000090411241FBECFEFD8E0DEBFCDBF11E051
:10010000A0E0B1E0E4E7FCE002C005900D92A2346B
:10011000B107D9F721E0A2E4B1E001C01D92A138F6
:10012000B207E1F70E94C3040C9438060C94000057
:100130000895682F88E091E00E94C101E0ECF0E0B2
:100140008181886281830895CF92DF92EF92FF923E
:10015000CF93DF93EC016A017B0160E472E48FE0EE
:1001600090E0A70196010E94EF0421503109410956
:100170005109E0ECF0E02483BB27A52F942F832FB7
:100180008583CC82DD82EE82FF8260E470E0CE0166
:100190000896DF91CF91FF90EF90DF90CF900C9475
:1001A000A3018091C10088608093C1008091C0004C
:1001B00080648093C000FA01640F751FE617F7078B
:1001C00041F081918093C6008091C00085FFFCCFF3
:1001D000F5CF8091C00086FFFCCF8091C100877F62
:1001E0008093C1000895CF92DF92EF92FF920F9318
:1001F0001F93CF93DF936B018A0161157105F9F0AD
:100200007C0128E0E20EF11CF8016081C7010E9428
:10021000C1018111F9CF8091C10088628093C10032
:10022000E80121960C0D1D1DC017D10741F0688112
:10023000C7010E94C1018111FACF2196F5CFDF914C
:10024000CF911F910F91FF90EF90DF90CF90089585
:10025000BF92CF92DF92EF92FF920F931F93CF93B3
:10026000DF937B016A0161157105D9F08C01085F8C
:100270001F4FEA016991C8010E94C101B82E809107
:10028000C10088628093C100EC0CFD1CCE15DF0517
:1002900031F06991C8010E94C101B82AF7CF8B2DB6
:1002A00001C080E0DF91CF911F910F91FF90EF90FF
:1002B000DF90CF90BF9008951F920F920FB60F92CC
:1002C00011242F933F934F935F936F937F938F935B
:1002D0009F93AF93BF93EF93FF9320910A013091C7
:1002E0000B0180910C0190910D012817390731F411
:1002F00080910E0190910F01892B29F088E091E007
:100300000E94E90103C08091C600877F8093C600E8
:10031000FF91EF91BF91AF919F918F917F916F91DD
:100320005F914F913F912F910F900FBE0F901F90B3
:1003300018951F920F920FB60F9211240F900FBEB7
:100340000F901F9018950F931F93CF93DF93EC019D
:100350008B0188819981009711F00E94A905C8013D
:100360000E941105998388831F821E821D821C8230
:100370001B821A8219870887DF91CF911F910F91F5
:100380000895FC01848195812281338128173907E2
:1003900029F42681378121303105B9F0A081B1815E
:1003A000A80FB91F6C9384819581019695838483EE
:1003B000208531858217930751F415821482868136
:1003C000978101969783868302C08FEF089580E01E
:1003D0000895FC0122813381A081B181A20FB31F56
:1003E0008C912F5F3F4F33832283408551852417A3
:1003F000350741F413821282268137812150310959
:10040000378326830895FC0184819581892B51F4DB
:100410008085918501979583848386819781019753
:100420009783868384819581019795838483019046
:10043000F081E02DE80FF91F80810895FC01808193
:1004400080768032D1F48181813041F482E491E080
:10045000909362018093610184E00895823041F4B9
:1004600082E191E0909362018093610181E00895BF
:100470008A3019F483818093120180E008950E94EC
:1004800073028091520184FF08C081E08093430190
:1004900064E082E491E00C944E020895CF93C62F5D
:1004A0002091520124FF07C02091530138E82327EF
:1004B0002093530103C02AE520935201DC01E4E5B7
:1004C000F1E09C2F9E0F8D918193892F8E1B181622
:1004D000D4F36C2F84E591E00E949E03CC5FC0931F
:1004E0005201CF910895CF93DF93809163018350A0
:1004F00087FDA4C09091600120915F012D3209F029
:100500009BC0883009F098C0CCE0D0E0C91BD1096D
:10051000C959DE4F83EC809347018AE5809314012B
:10052000109246018881807621F0CE010E941E0241
:100530007AC09A81109250018981811106C010926F
:10054000510120E531E082E06AC0853019F49093D2
:10055000640162C0863009F049C08B81813019F492
:100560008EEB90E01AC0823041F48CE990E09093D9
:1005700062018093610182E235C08330F1F4911110
:1005800008C08EEE90E0909362018093610184E058
:1005900029C0913041F48CED90E0909362018093FA
:1005A000610182E11FC09230E1F480ED90E0909310
:1005B0006201809361018CE015C0813241F48EEAC2
:1005C00090E0909362018093610189E00BC08232D8
:1005D00041F488E690E0909362018093610184E3A6
:1005E00001C080E090E4909346011DC0883069F01E
:1005F000893019F4909366010FC08A3049F08B302E
:1006000059F48BE48093530107C026E631E002C021
:1006100020E531E081E003C020E531E080E0309367
:100620006201209361019F81911104C09E819817FE
:1006300008F4892F809313011092630180911401B3
:1006400084FF4DC0809113018F3F09F448C0C82F2B
:10065000893008F0C8E08C1B80931301809147011A
:1006600098E8892780934701CC2361F1809161014B
:10067000909162012091460126FF12C0A8E4B1E0EA
:1006800027E431E020953095280F391F4C2F4A0F71
:10069000F901EA0FFB1FE491ED934A13F9CF09C06A
:1006A000E8E4F1E0DC012C2F2E0F3D9131932E1365
:1006B000FCCF01962FEF2C0F820F911D90936201BA
:1006C000809361016C2F88E491E00E949E03CC5FCF
:1006D000CC3019F08FEF80931301C093140184E1A3
:1006E00099B19C7031F48150D9F710926401109245
:1006F0005E01DF91CF910895E9E6F0E080818260AC
:100700008083E89A8BE4809353018AE580935201B9
:100710000895A82FB92F80E090E041E050EA60955D
:1007200030E009C02D9182279795879510F0842796
:100730009527305EC8F36F5FA8F30895EADF8D93C5
:100740009D930895CF93CFB7CF93DF93C3954B9BE2
:10075000E9F74B9B0BC04B9B09C04B9B07C04B9BC6
:1007600005C04B9B03C04B9B01C08BC06F93C091D6
:100770006001DD27C959DE4F2F9365E54B9B03C010
:100780002F916F91E6CF0F931F934F9320E040E19D
:100790005F9309B10C7003FB27F93F9350E03BE0F6
:1007A00039C01C7040642F77012F5F5F1EC0406806
:1007B00019B11C702F7752501FC0406409B12F77B8
:1007C0000C70D1F15F5F00C023C0406219B12F7778
:1007D0001C7091F15F5F00C025C00C701027515054
:1007E00012F45D5F0000115027952C3F19B1C8F637
:1007F0001C700127015027952C3FC8F642274993CA
:1008000009B10C7010274F73115027952C3FA8F693
:100810004695469519B11C7079F00127015027952E
:100820002C3F98F66B5A60F3315009B1B0F600C016
:1008300011E01CBB002719C03B503195C31BD040B1
:1008400011E01CBB0881033C09F10B34F9F0209145
:100850005E011981110F1213EDCF4A81441F093631
:1008600051F10D3211F0013E29F7009365013F91DE
:100870005F914F911F910F912F916F91CCB3C0FD5C
:1008800065CFDF91CF91CFBFCF91189520916501B2
:10089000222369F310916301112391F5343092F111
:1008A0003093630120935F01109160013BE0311BA5
:1008B0003093600127C00091630101300CF50AE517
:1008C0004F7049F43091140134FD1DC000931401A0
:1008D000C7E4D1E01CC03091520134FD14C0009334
:1008E0005201C3E5D1E013C0052710E000C00000AD
:1008F0000BB91AC0052710E0221F1DC010E021C04F
:100900004AE502C032ED432FC4E1D0E032E01AB133
:100910001C605B9A0BB11AB95CE020E865E320FF2C
:1009200005270BB9279517951C3FF0F66695B8F784
:10093000B1F720FF05270BB9279517951C3FD0F677
:100940002795179517FF052700001C3F0BB9B0F638
:1009500029913A9519F7037F10916401110FC6513F
:10096000D0400BB911F010935E0111E01CBB086080
:100970001AB1137F402F437F54E05A95F1F70BB91A
:100980001AB94BB974CF40E855E260E070E080E0FE
:1009900091E00E94A4000E947C0354985C982FEF81
:1009A00081EE94E0215080409040E1F700C00000CB
:1009B000549A5C9A78944BE151E066E270E080E0F2
:1009C00091E00E94F3000E943F022FEF81EE94E03D
:1009D000215080409040E1F700C00000ECCFA1E240
:1009E0001A2EAA1BBB1BFD010DC0AA1FBB1FEE1FA9
:1009F000FF1FA217B307E407F50720F0A21BB30BF4
:100A0000E40BF50B661F771F881F991F1A9469F76F
:100A100060957095809590959B01AC01BD01CF01CB
:100A20000895CF93DF938230910510F482E090E037
:100A3000E0917F01F091800120E030E0A0E0B0E0A3
:100A4000309739F14081518148175907B8F048175C
:100A5000590771F482819381109729F013969C9322
:100A60008E9312972CC09093800180937F0127C0B2
:100A70002115310531F04217530718F0A901DB01A8
:100A800001C0EF019A01BD01DF010280F381E02D79
:100A9000D7CF21153105F9F0281B390B243031054A
:100AA00080F48A819B816115710521F0FB0193839C
:100AB000828304C09093800180937F01FE0132966F
:100AC00044C0FE01E20FF31F81939193225031093C
:100AD000398328833AC020917D0130917E01232BF8
:100AE00041F4209117013091180130937E01209339
:100AF0007D0120911501309116012115310541F438
:100B00002DB73EB74091190150911A01241B350BA6
:100B1000E0917D01F0917E01E217F307A0F42E1B16
:100B20003F0B2817390778F0AC014E5F5F4F241751
:100B3000350748F04E0F5F1F50937E0140937D01B3
:100B40008193919302C0E0E0F0E0CF01DF91CF917B
:100B50000895CF93DF93009709F487C0FC01329783
:100B600013821282C0917F01D0918001209781F47D
:100B700020813181280F391F80917D0190917E0164
:100B80008217930779F5F0937E01E0937D016DC0A4
:100B9000DE0120E030E0AE17BF0750F412964D9111
:100BA0005C9113979D014115510509F1DA01F3CFCD
:100BB000B383A28340815181840F951F8A179B07BD
:100BC00071F48D919C911197840F951F02969183DA
:100BD000808312968D919C91139793838283211524
:100BE000310529F4F0938001E0937F013EC0D901E3
:100BF0001396FC93EE9312974D915D91A40FB51F40
:100C0000EA17FB0779F480819181840F951F029682
:100C1000D90111969C938E938281938113969C9314
:100C20008E931297E0E0F0E08A819B81009719F0A3
:100C3000FE01EC01F9CFCE01029628813981820FA5
:100C4000931F20917D0130917E012817390769F4A7
:100C5000309729F41092800110927F0102C0138214
:100C60001282D0937E01C0937D01DF91CF910895D0
:040C7000F894FFCF26
:100C7400990098008025000000000000000000009A
:100C8400000005FF5A00008101200048656C6C6F6C
:100C940020576F726C6421313233340D0A4F637400
:100CA400202031203230313432333A33313A313347
:020CB40000003E
:02000004008278
:03000000FFD9FF26
:00000001FF
