:100000000C9479000C9487020C9496000C94960042
:100010000C9496000C9496000C9496000C94960008
:100020000C9496000C9496000C9496000C949600F8
:100030000C9496000C9496000C9496000C949600E8
:100040000C9496000C9496000C9496000C949600D8
:100050000C9496000C9496000C9496000C949600C8
:100060000C9496000C94960005010902A101090167
:10007000A100050919012903150025019503750142
:10008000810295017505810305010930093109389F
:100090001581257F750895038106C0C004030904F6
:1000A00012036F0062006400650076002E0061009C
:1000B00074000C034D006F007500730065001201A1
:1000C000100100000008C016E80200010102000152
:1000D00009022200010100800A0904000001030056
:1000E00000000921010100012234000705810308F5
:1000F000006411241FBECFEFD8E0DEBFCDBF11E0FA
:10010000A0E0B1E0E8E9F7E002C005900D92AA3165
:10011000B107D9F711E0AAE1B1E001C01D92A53500
:10012000B107E1F70E94EE000C94CA030C940000A2
:10013000CF92DF92EF92FF920F931F936C017A019F
:100140008B0160E472E48FE090E0A80197010E94C7
:10015000A8032150304040405040E0ECF0E02483C0
:10016000232F342F452F55272583F601E482F5826E
:10017000068317831F910F91FF90EF90DF90CF9030
:1001800008958091C1008860E0ECF0E08183809167
:10019000C00080648093C00020E030E0A0ECB0E0BC
:1001A0000DC0FA01E20FF31F808116968C9316970B
:1001B0008091C00085FFFCCF2F5F3F4F2617370788
:1001C00080F38091C00086FFFCCF8091C100877FC3
:1001D000E0ECF0E08183089508950895CF93DF93D4
:1001E00080E091E040E855E260E070E00E94980015
:1001F000C0E9D1E080E091E06FE070E048E051E0DC
:100200000E94C10088EE93E0FE013197F1F701975B
:10021000D9F7F0CFFC01808180768032E1F48181D2
:10022000813041F48AE191E090933A018093390161
:1002300084E00895823041F487E191E090933A019F
:100240008093390181E008958A3029F48381809375
:10025000170180E0089580E008950E94490180918F
:100260002A0184FF08C081E080931B018AE191E0AC
:1002700064E00E944B020895E9E6F0E0808182602C
:100280008083E89A8BE480932B018AE580932A018E
:1002900008951F93CF93DF9390913B01935097FD67
:1002A000A2C020913801809137018D3209F099C0A8
:1002B000983009F096C0CCE0D0E0C21BD109C15CF7
:1002C000DE4F83EC80931F018AE580931801109222
:1002D0001E018881807629F0CE010E940A01282F14
:1002E00077C09A81109228018981882321F4109285
:1002F000290122E067C0853019F490933C0161C068
:10030000863009F04AC08B81813019F48EEB90E081
:100310001BC0823041F480ED90E090933A018093CD
:10032000390122E236C08330F9F48A81882341F40E
:100330008CE990E090933A018093390124E029C040
:10034000813041F480EA90E090933A018093390142
:1003500022E11FC08230E1F482EB90E090933A01F9
:10036000809339012CE015C0813241F482EE90E097
:1003700090933A018093390129E00BC0823241F415
:1003800088E690E090933A018093390124E301C01C
:1003900020E080E480931E011BC0883021F421E01E
:1003A0008EE391E011C0893019F490933E0109C0A9
:1003B0008A3011F421E006C08B3019F48BE480936D
:1003C0002B0120E088E291E090933A01809339017B
:1003D0008F81882321F48E81821708F4282F20939F
:1003E000190110923B018091180184FF46C0809151
:1003F00019018F3F09F441C0182F893008F018E027
:10040000811B8093190180911F0198E889278093AF
:100410001F01112321F12091390130913A0180917E
:100420001E0186FF0AC0912FF901A0E2B1E084917C
:100430008D9331969150D9F708C0912FD901E0E200
:10044000F1E08D9181939150E1F7C901019611502E
:10045000810F911D1F5F90933A018093390180E2D3
:1004600091E0612F0E948302612F6C5F6C3019F064
:100470008FEF809319016093180194E189B18C701A
:1004800031F49150D9F710923C0110923601DF916E
:10049000CF911F9108951F93DC01162F80912A019F
:1004A00084FF07C080912B0198E8892780932B0156
:1004B00003C08AE580932A01912FECE2F1E08D914F
:1004C000819391501916DCF38CE291E0612F0E9428
:1004D00083021C5F10932A011F910895A82FB92F42
:1004E00080E090E041E050EA609530E009C02D9155
:1004F00082279795879510F084279527305EC8F35B
:100500006F5FA8F30895EADF8D939D930895CF93CD
:10051000CFB7CF93DF93C3954B9BE9F74B9B0BC0B2
:100520004B9B09C04B9B07C04B9B05C04B9B03C01B
:100530004B9B01C08BC06F93C0913801DD27C15C1C
:10054000DE4F2F9365E54B9B03C02F916F91E6CF54
:100550000F931F934F9320E040E15F9309B10C701C
:1005600003FB27F93F9350E03BE039C01C70406427
:100570002F77012F5F5F1EC0406819B11C702F7765
:1005800052501FC0406409B12F770C70D1F15F5FEA
:1005900000C023C0406219B12F771C7091F15F5FDA
:1005A00000C025C00C701027515012F45D5F000090
:1005B000115027952C3F19B1C8F61C700127015026
:1005C00027952C3FC8F64227499309B10C70102794
:1005D0004F73115027952C3FA8F64695469519B1B3
:1005E0001C7079F00127015027952C3F98F66B5A23
:1005F00060F3315009B1B0F600C011E01CBB002718
:1006000019C03B503195C31BD04011E01CBB088181
:10061000033C09F10B34F9F0209136011981110FD7
:100620001213EDCF4A81441F093651F10D3211F0FA
:10063000013E29F700933D013F915F914F911F913A
:100640000F912F916F91CCB3C0FD65CFDF91CF910A
:10065000CFBFCF91189520913D01222369F31091CE
:100660003B01112391F5343092F130933B012093FB
:100670003701109138013BE0311B3093380127C01E
:1006800000913B0101300CF50AE54F7049F43091BF
:10069000180134FD1DC000931801CFE1D1E01CC04A
:1006A00030912A0134FD14C000932A01CBE2D1E03D
:1006B00013C0052710E000C000000BB91AC00527C1
:1006C00010E0221F1DC010E021C04AE502C032ED3B
:1006D000432FC4E1D0E032E01AB11C605B9A0BB149
:1006E0001AB95CE020E865E320FF05270BB92795E0
:1006F00017951C3FF0F66695B8F7B1F720FF052770
:100700000BB9279517951C3FD0F62795179517FF1E
:10071000052700001C3F0BB9B0F629913A9519F74F
:10072000037F10913C01110FC651D0400BB911F05D
:100730001093360111E01CBB08601AB1137F402FE3
:10074000437F54E05A95F1F70BB91AB94BB974CFFE
:10075000A1E21A2EAA1BBB1BFD010DC0AA1FBB1FC5
:10076000EE1FFF1FA217B307E407F50720F0A21B37
:10077000B30BE40BF50B661F771F881F991F1A94A4
:1007800069F760957095809590959B01AC01BD01CE
:08079000CF010895F894FFCF9A
:10079800EC00ED008025000048656C6C6F20576FF9
:0A07A800726C64210D0A00055AFF6F
:00000001FF
