:100000000C9434000C9449000C9449000C94490061
:100010000C9449000C9449000C9449000C9449003C
:100020000C9449000C9449000C9449000C9449002C
:100030000C9449000C9449000C9449000C9449001C
:100040000C9449000C9449000C9449000C9449000C
:100050000C9449000C9449000C9449000C944900FC
:100060000C9449000C94490011241FBECFEFD8E036
:10007000DEBFCDBF11E0A0E0B1E0ECEAF1E002C0EC
:1000800005900D92A831B107D9F70E94A1000C94F8
:10009000D4000C940000CF92DF92EF92FF920F9366
:1000A0001F936C017A018B0160E472E48FE090E0B1
:1000B000A80197010E94B2002150304040405040BA
:1000C000E0ECF0E02483232F342F452F55272583A0
:1000D000F601E482F582068317831F910F91FF904A
:1000E000EF90DF90CF9008958091C1008860E0ECA0
:1000F000F0E081838091C00080648093C00020E0A4
:1001000030E0A0ECB0E00DC0FA01E20FF31F8081F7
:1001100016968C9316978091C00085FFFCCF2F5FB9
:100120003F4F2617370780F38091C00086FFFCCF32
:100130008091C100877FE0ECF0E08183089508950D
:10014000089580E091E040E855E260E070E00E94B0
:100150004B0080E091E06FE070E048E051E00E94E9
:100160007400F7CFA1E21A2EAA1BBB1BFD010DC024
:10017000AA1FBB1FEE1FFF1FA217B307E407F50757
:1001800020F0A21BB30BE40BF50B661F771F881F33
:10019000991F1A9469F760957095809590959B01C9
:0C01A000AC01BD01CF010895F894FFCF21
:1001AC009F00A0008025000048656C6C6F20576F85
:0801BC00726C64210D0A0000C1
:00000001FF
